{
  "contractName": "YouMatterDao",
  "abi": [
    {
      "inputs": [
        {
          "internalType": "string[]",
          "name": "candidateNames",
          "type": "string[]"
        },
        {
          "internalType": "address payable[]",
          "name": "_candidatesAddress",
          "type": "address[]"
        }
      ],
      "payable": false,
      "stateMutability": "nonpayable",
      "type": "constructor"
    },
    {
      "constant": true,
      "inputs": [
        {
          "internalType": "uint256",
          "name": "",
          "type": "uint256"
        }
      ],
      "name": "candidates",
      "outputs": [
        {
          "internalType": "string",
          "name": "name",
          "type": "string"
        },
        {
          "internalType": "address payable",
          "name": "candidatesAddress",
          "type": "address"
        },
        {
          "internalType": "uint256",
          "name": "voteCount",
          "type": "uint256"
        }
      ],
      "payable": false,
      "stateMutability": "view",
      "type": "function"
    },
    {
      "constant": true,
      "inputs": [],
      "name": "chairperson",
      "outputs": [
        {
          "internalType": "address",
          "name": "",
          "type": "address"
        }
      ],
      "payable": false,
      "stateMutability": "view",
      "type": "function"
    },
    {
      "constant": true,
      "inputs": [],
      "name": "state",
      "outputs": [
        {
          "internalType": "enum YouMatterDao.State",
          "name": "",
          "type": "uint8"
        }
      ],
      "payable": false,
      "stateMutability": "view",
      "type": "function"
    },
    {
      "constant": true,
      "inputs": [
        {
          "internalType": "address",
          "name": "",
          "type": "address"
        }
      ],
      "name": "voters",
      "outputs": [
        {
          "internalType": "uint256",
          "name": "weight",
          "type": "uint256"
        },
        {
          "internalType": "bool",
          "name": "voted",
          "type": "bool"
        },
        {
          "internalType": "uint256",
          "name": "vote",
          "type": "uint256"
        }
      ],
      "payable": false,
      "stateMutability": "view",
      "type": "function"
    },
    {
      "constant": false,
      "inputs": [],
      "name": "donate",
      "outputs": [],
      "payable": true,
      "stateMutability": "payable",
      "type": "function"
    },
    {
      "constant": false,
      "inputs": [
        {
          "internalType": "uint256",
          "name": "_withdrawalAmount",
          "type": "uint256"
        }
      ],
      "name": "withdraw",
      "outputs": [],
      "payable": false,
      "stateMutability": "nonpayable",
      "type": "function"
    },
    {
      "constant": false,
      "inputs": [
        {
          "internalType": "string[]",
          "name": "candidateNames",
          "type": "string[]"
        },
        {
          "internalType": "address payable[]",
          "name": "_candidatesAddress",
          "type": "address[]"
        }
      ],
      "name": "addCandidates",
      "outputs": [],
      "payable": false,
      "stateMutability": "nonpayable",
      "type": "function"
    },
    {
      "constant": false,
      "inputs": [],
      "name": "startVote",
      "outputs": [],
      "payable": false,
      "stateMutability": "nonpayable",
      "type": "function"
    },
    {
      "constant": false,
      "inputs": [],
      "name": "endVote",
      "outputs": [],
      "payable": false,
      "stateMutability": "nonpayable",
      "type": "function"
    },
    {
      "constant": false,
      "inputs": [
        {
          "internalType": "address",
          "name": "voter",
          "type": "address"
        }
      ],
      "name": "giveRightToVote",
      "outputs": [],
      "payable": false,
      "stateMutability": "nonpayable",
      "type": "function"
    },
    {
      "constant": false,
      "inputs": [
        {
          "internalType": "uint256",
          "name": "candidate",
          "type": "uint256"
        }
      ],
      "name": "vote",
      "outputs": [],
      "payable": false,
      "stateMutability": "nonpayable",
      "type": "function"
    },
    {
      "constant": true,
      "inputs": [],
      "name": "winningCandidate",
      "outputs": [
        {
          "internalType": "address payable",
          "name": "_candidateAddress",
          "type": "address"
        }
      ],
      "payable": false,
      "stateMutability": "view",
      "type": "function"
    }
  ],
  "bytecode": "0x60806040523480156200001157600080fd5b5060405162001c3b38038062001c3b833981810160405262000037919081019062000451565b336000806101000a81548173ffffffffffffffffffffffffffffffffffffffff021916908373ffffffffffffffffffffffffffffffffffffffff16021790555060018060008060009054906101000a900473ffffffffffffffffffffffffffffffffffffffff1673ffffffffffffffffffffffffffffffffffffffff1673ffffffffffffffffffffffffffffffffffffffff168152602001908152602001600020600001819055506000600360006101000a81548160ff02191690836002811115620000ff57fe5b021790555060008090505b82518110156200021c57600260405180606001604052808584815181106200012e57fe5b602002602001015181526020018484815181106200014857fe5b602002602001015173ffffffffffffffffffffffffffffffffffffffff1681526020016000815250908060018154018082558091505090600182039060005260206000209060030201600090919290919091506000820151816000019080519060200190620001b992919062000225565b5060208201518160010160006101000a81548173ffffffffffffffffffffffffffffffffffffffff021916908373ffffffffffffffffffffffffffffffffffffffff1602179055506040820151816002015550505080806001019150506200010a565b505050620005f5565b828054600181600116156101000203166002900490600052602060002090601f016020900481019282601f106200026857805160ff191683800117855562000299565b8280016001018555821562000299579182015b82811115620002985782518255916020019190600101906200027b565b5b509050620002a89190620002ac565b5090565b620002d191905b80821115620002cd576000816000905550600101620002b3565b5090565b90565b600081519050620002e581620005db565b92915050565b600082601f830112620002fd57600080fd5b8151620003146200030e82620004f2565b620004c4565b915081818352602084019350602081019050838560208402820111156200033a57600080fd5b60005b838110156200036e5781620003538882620002d4565b8452602084019350602083019250506001810190506200033d565b5050505092915050565b600082601f8301126200038a57600080fd5b8151620003a16200039b826200051b565b620004c4565b9150818183526020840193506020810190508360005b83811015620003eb5781518601620003d08882620003f5565b845260208401935060208301925050600181019050620003b7565b5050505092915050565b600082601f8301126200040757600080fd5b81516200041e620004188262000544565b620004c4565b915080825260208301602083018583830111156200043b57600080fd5b62000448838284620005a5565b50505092915050565b600080604083850312156200046557600080fd5b600083015167ffffffffffffffff8111156200048057600080fd5b6200048e8582860162000378565b925050602083015167ffffffffffffffff811115620004ac57600080fd5b620004ba85828601620002eb565b9150509250929050565b6000604051905081810181811067ffffffffffffffff82111715620004e857600080fd5b8060405250919050565b600067ffffffffffffffff8211156200050a57600080fd5b602082029050602081019050919050565b600067ffffffffffffffff8211156200053357600080fd5b602082029050602081019050919050565b600067ffffffffffffffff8211156200055c57600080fd5b601f19601f8301169050602081019050919050565b60006200057e8262000585565b9050919050565b600073ffffffffffffffffffffffffffffffffffffffff82169050919050565b60005b83811015620005c5578082015181840152602081019050620005a8565b83811115620005d5576000848401525b50505050565b620005e68162000571565b8114620005f257600080fd5b50565b61163680620006056000396000f3fe6080604052600436106100a75760003560e01c80639e7b8d61116100645780639e7b8d61146101a8578063a3ec138d146101d1578063b922394614610210578063c19d93fb14610227578063d28178d714610252578063ed88c68e1461027d576100a7565b80630121b93f146100ac5780632e1a7d4d146100d55780632e4176cf146100fe5780633477ee2e146101295780634c0a6af01461016857806393e05a8f1461017f575b600080fd5b3480156100b857600080fd5b506100d360048036036100ce9190810190610f4b565b610287565b005b3480156100e157600080fd5b506100fc60048036036100f79190810190610f4b565b610426565b005b34801561010a57600080fd5b50610113610477565b6040516101209190611244565b60405180910390f35b34801561013557600080fd5b50610150600480360361014b9190810190610f4b565b61049c565b60405161015f93929190611295565b60405180910390f35b34801561017457600080fd5b5061017d61058b565b005b34801561018b57600080fd5b506101a660048036036101a19190810190610edf565b6106a8565b005b3480156101b457600080fd5b506101cf60048036036101ca9190810190610eb6565b61084a565b005b3480156101dd57600080fd5b506101f860048036036101f39190810190610eb6565b610a02565b604051610207939291906113d3565b60405180910390f35b34801561021c57600080fd5b50610225610a39565b005b34801561023357600080fd5b5061023c610b56565b604051610249919061127a565b60405180910390f35b34801561025e57600080fd5b50610267610b69565b604051610274919061125f565b60405180910390f35b610285610c85565b005b6001600281111561029457fe5b600360009054906101000a900460ff1660028111156102af57fe5b146102ef576040517f08c379a00000000000000000000000000000000000000000000000000000000081526004016102e690611393565b60405180910390fd5b6000600160003373ffffffffffffffffffffffffffffffffffffffff1673ffffffffffffffffffffffffffffffffffffffff168152602001908152602001600020905060008160000154141561037a576040517f08c379a0000000000000000000000000000000000000000000000000000000008152600401610371906112d3565b60405180910390fd5b8060010160009054906101000a900460ff16156103cc576040517f08c379a00000000000000000000000000000000000000000000000000000000081526004016103c3906112f3565b60405180910390fd5b60018160010160006101000a81548160ff02191690831515021790555081816002018190555080600001546002838154811061040457fe5b9060005260206000209060030201600201600082825401925050819055505050565b61042e610b69565b73ffffffffffffffffffffffffffffffffffffffff166108fc829081150290604051600060405180830381858888f19350505050158015610473573d6000803e3d6000fd5b5050565b6000809054906101000a900473ffffffffffffffffffffffffffffffffffffffff1681565b600281815481106104a957fe5b9060005260206000209060030201600091509050806000018054600181600116156101000203166002900480601f0160208091040260200160405190810160405280929190818152602001828054600181600116156101000203166002900480156105555780601f1061052a57610100808354040283529160200191610555565b820191906000526020600020905b81548152906001019060200180831161053857829003601f168201915b5050505050908060010160009054906101000a900473ffffffffffffffffffffffffffffffffffffffff16908060020154905083565b6000809054906101000a900473ffffffffffffffffffffffffffffffffffffffff1673ffffffffffffffffffffffffffffffffffffffff163373ffffffffffffffffffffffffffffffffffffffff161461061a576040517f08c379a000000000000000000000000000000000000000000000000000000000815260040161061190611313565b60405180910390fd5b6000600281111561062757fe5b600360009054906101000a900460ff16600281111561064257fe5b14610682576040517f08c379a000000000000000000000000000000000000000000000000000000000815260040161067990611373565b60405180910390fd5b6001600360006101000a81548160ff021916908360028111156106a157fe5b0217905550565b6002808111156106b457fe5b600360009054906101000a900460ff1660028111156106cf57fe5b1461070f576040517f08c379a000000000000000000000000000000000000000000000000000000000815260040161070690611353565b60405180910390fd5b6000600360006101000a81548160ff0219169083600281111561072e57fe5b021790555060008090505b8251811015610845576002604051806060016040528085848151811061075b57fe5b6020026020010151815260200184848151811061077457fe5b602002602001015173ffffffffffffffffffffffffffffffffffffffff16815260200160008152509080600181540180825580915050906001820390600052602060002090600302016000909192909190915060008201518160000190805190602001906107e3929190610c87565b5060208201518160010160006101000a81548173ffffffffffffffffffffffffffffffffffffffff021916908373ffffffffffffffffffffffffffffffffffffffff160217905550604082015181600201555050508080600101915050610739565b505050565b6000809054906101000a900473ffffffffffffffffffffffffffffffffffffffff1673ffffffffffffffffffffffffffffffffffffffff163373ffffffffffffffffffffffffffffffffffffffff16146108d9576040517f08c379a00000000000000000000000000000000000000000000000000000000081526004016108d090611333565b60405180910390fd5b600160008273ffffffffffffffffffffffffffffffffffffffff1673ffffffffffffffffffffffffffffffffffffffff16815260200190815260200160002060010160009054906101000a900460ff1615610969576040517f08c379a0000000000000000000000000000000000000000000000000000000008152600401610960906113b3565b60405180910390fd5b6000600160008373ffffffffffffffffffffffffffffffffffffffff1673ffffffffffffffffffffffffffffffffffffffff16815260200190815260200160002060000154146109b857600080fd5b60018060008373ffffffffffffffffffffffffffffffffffffffff1673ffffffffffffffffffffffffffffffffffffffff1681526020019081526020016000206000018190555050565b60016020528060005260406000206000915090508060000154908060010160009054906101000a900460ff16908060020154905083565b6000809054906101000a900473ffffffffffffffffffffffffffffffffffffffff1673ffffffffffffffffffffffffffffffffffffffff163373ffffffffffffffffffffffffffffffffffffffff1614610ac8576040517f08c379a0000000000000000000000000000000000000000000000000000000008152600401610abf90611313565b60405180910390fd5b60016002811115610ad557fe5b600360009054906101000a900460ff166002811115610af057fe5b14610b30576040517f08c379a0000000000000000000000000000000000000000000000000000000008152600401610b2790611393565b60405180910390fd5b6002600360006101000a81548160ff02191690836002811115610b4f57fe5b0217905550565b600360009054906101000a900460ff1681565b6000600280811115610b7757fe5b600360009054906101000a900460ff166002811115610b9257fe5b14610bd2576040517f08c379a0000000000000000000000000000000000000000000000000000000008152600401610bc990611353565b60405180910390fd5b600080905060008090505b600280549050811015610c80578160028281548110610bf857fe5b9060005260206000209060030201600201541115610c735760028181548110610c1d57fe5b906000526020600020906003020160020154915060028181548110610c3e57fe5b906000526020600020906003020160010160009054906101000a900473ffffffffffffffffffffffffffffffffffffffff1692505b8080600101915050610bdd565b505090565b565b828054600181600116156101000203166002900490600052602060002090601f016020900481019282601f10610cc857805160ff1916838001178555610cf6565b82800160010185558215610cf6579182015b82811115610cf5578251825591602001919060010190610cda565b5b509050610d039190610d07565b5090565b610d2991905b80821115610d25576000816000905550600101610d0d565b5090565b90565b600081359050610d3b816115ae565b92915050565b600081359050610d50816115c5565b92915050565b600082601f830112610d6757600080fd5b8135610d7a610d7582611437565b61140a565b91508181835260208401935060208101905083856020840282011115610d9f57600080fd5b60005b83811015610dcf5781610db58882610d41565b845260208401935060208301925050600181019050610da2565b5050505092915050565b600082601f830112610dea57600080fd5b8135610dfd610df88261145f565b61140a565b9150818183526020840193506020810190508360005b83811015610e435781358601610e298882610e4d565b845260208401935060208301925050600181019050610e13565b5050505092915050565b600082601f830112610e5e57600080fd5b8135610e71610e6c82611487565b61140a565b91508082526020830160208301858383011115610e8d57600080fd5b610e9883828461154e565b50505092915050565b600081359050610eb0816115dc565b92915050565b600060208284031215610ec857600080fd5b6000610ed684828501610d2c565b91505092915050565b60008060408385031215610ef257600080fd5b600083013567ffffffffffffffff811115610f0c57600080fd5b610f1885828601610dd9565b925050602083013567ffffffffffffffff811115610f3557600080fd5b610f4185828601610d56565b9150509250929050565b600060208284031215610f5d57600080fd5b6000610f6b84828501610ea1565b91505092915050565b610f7d816114e1565b82525050565b610f8c816114cf565b82525050565b610f9b816114f3565b82525050565b610faa8161153c565b82525050565b6000610fbb826114b3565b610fc581856114be565b9350610fd581856020860161155d565b610fde81611590565b840191505092915050565b6000610ff66014836114be565b91507f486173206e6f20726967687420746f20766f74650000000000000000000000006000830152602082019050919050565b6000611036600e836114be565b91507f416c726561647920766f7465642e0000000000000000000000000000000000006000830152602082019050919050565b6000611076602d836114be565b91507f4f6e6c79206368616972706572736f6e2063616e20737461727420616e64206560008301527f6e642074686520766f74696e67000000000000000000000000000000000000006020830152604082019050919050565b60006110dc6028836114be565b91507f4f6e6c79206368616972706572736f6e2063616e20676976652072696768742060008301527f746f20766f74652e0000000000000000000000000000000000000000000000006020830152604082019050919050565b6000611142601a836114be565b91507f6974206d75737420626520696e20456e64656420506572696f640000000000006000830152602082019050919050565b60006111826015836114be565b91507f6974206d75737420626520696e205374617274656400000000000000000000006000830152602082019050919050565b60006111c2601b836114be565b91507f6974206d75737420626520696e20566f74696e6720506572696f6400000000006000830152602082019050919050565b60006112026018836114be565b91507f54686520766f74657220616c726561647920766f7465642e00000000000000006000830152602082019050919050565b61123e81611532565b82525050565b60006020820190506112596000830184610f83565b92915050565b60006020820190506112746000830184610f74565b92915050565b600060208201905061128f6000830184610fa1565b92915050565b600060608201905081810360008301526112af8186610fb0565b90506112be6020830185610f74565b6112cb6040830184611235565b949350505050565b600060208201905081810360008301526112ec81610fe9565b9050919050565b6000602082019050818103600083015261130c81611029565b9050919050565b6000602082019050818103600083015261132c81611069565b9050919050565b6000602082019050818103600083015261134c816110cf565b9050919050565b6000602082019050818103600083015261136c81611135565b9050919050565b6000602082019050818103600083015261138c81611175565b9050919050565b600060208201905081810360008301526113ac816111b5565b9050919050565b600060208201905081810360008301526113cc816111f5565b9050919050565b60006060820190506113e86000830186611235565b6113f56020830185610f92565b6114026040830184611235565b949350505050565b6000604051905081810181811067ffffffffffffffff8211171561142d57600080fd5b8060405250919050565b600067ffffffffffffffff82111561144e57600080fd5b602082029050602081019050919050565b600067ffffffffffffffff82111561147657600080fd5b602082029050602081019050919050565b600067ffffffffffffffff82111561149e57600080fd5b601f19601f8301169050602081019050919050565b600081519050919050565b600082825260208201905092915050565b60006114da82611512565b9050919050565b60006114ec82611512565b9050919050565b60008115159050919050565b600081905061150d826115a1565b919050565b600073ffffffffffffffffffffffffffffffffffffffff82169050919050565b6000819050919050565b6000611547826114ff565b9050919050565b82818337600083830152505050565b60005b8381101561157b578082015181840152602081019050611560565b8381111561158a576000848401525b50505050565b6000601f19601f8301169050919050565b600381106115ab57fe5b50565b6115b7816114cf565b81146115c257600080fd5b50565b6115ce816114e1565b81146115d957600080fd5b50565b6115e581611532565b81146115f057600080fd5b5056fea365627a7a72315820e65e58c9d085c2f5211f8f2aee4e0304f5d74fb7fc08d68e643cbaedc5dde6ad6c6578706572696d656e74616cf564736f6c63430005100040",
  "source": "// SPDX-License-Identifier: GPL-3.0\n\n// pragma solidity ^0.8.0;\npragma solidity >=0.4.25 <0.7.0;\n\n// pragma abicoder v2;\npragma experimental ABIEncoderV2;\n\n\n\ncontract YouMatterDao {\n   \n    struct DAOVoter {\n        uint weight; \n        bool voted;  \n        uint vote;   \n    }\n \n    struct Candidate {\n        string name;\n        address payable candidatesAddress;\n        uint voteCount; \n    }\n\n    address public chairperson;\n\n    mapping(address => DAOVoter) public voters;\n\n    Candidate[] public candidates;\n    enum State { Created, Voting, Ended } \n    \n    State public state;\n\n    constructor(string[] memory candidateNames, address payable[] memory _candidatesAddress) public {\n        chairperson = msg.sender;\n        voters[chairperson].weight = 1;\n        state = State.Created;\n        \n        for (uint i = 0; i < candidateNames.length; i++) {\n            candidates.push(Candidate({\n                name: candidateNames[i],\n                candidatesAddress: _candidatesAddress[i],\n                voteCount: 0\n            }));\n        }\n    }\n     \n\n    function donate() public payable {}\n    \n    \n    function withdraw(uint _withdrawalAmount)  public {\n         winningCandidate().transfer(_withdrawalAmount);\n    }\n\n\n    \n    modifier onlySmartContractOwner() {\n        require(\n            msg.sender == chairperson,\n            \"Only chairperson can start and end the voting\"\n        );\n        _;\n    }\n    \n    modifier CreatedState() {\n        require(state == State.Created, \"it must be in Started\");\n        _;\n    }\n    \n    modifier VotingState() {\n        require(state == State.Voting, \"it must be in Voting Period\");\n        _;\n    }\n    \n    modifier EndedState() {\n        require(state == State.Ended, \"it must be in Ended Period\");\n        _;\n    }\n    \n    function addCandidates(string[] memory candidateNames,address payable[] memory _candidatesAddress) \n        public \n        EndedState\n    {\n        state = State.Created;\n        for (uint i = 0; i < candidateNames.length; i++) {\n            candidates.push(Candidate({\n                name: candidateNames[i],\n                candidatesAddress: _candidatesAddress[i],\n                voteCount: 0\n            }));\n        }\n    }\n    \n    \n    function startVote() \n        public\n        onlySmartContractOwner\n        CreatedState\n    {\n        state = State.Voting;\n    }\n\n    function endVote() \n        public \n        onlySmartContractOwner\n        VotingState\n    {\n        state = State.Ended;\n    }\n\n    function giveRightToVote(address voter) public {\n        require(\n            msg.sender == chairperson,\n            \"Only chairperson can give right to vote.\"\n        );\n        require(\n            !voters[voter].voted,\n            \"The voter already voted.\"\n        );\n        require(voters[voter].weight == 0);\n        voters[voter].weight = 1;\n    }\n\n    function vote(uint candidate) \n        public\n        VotingState\n    {\n        DAOVoter\n storage sender = voters[msg.sender];\n        require(sender.weight != 0, \"Has no right to vote\");\n        require(!sender.voted, \"Already voted.\");\n        sender.voted = true;\n        sender.vote = candidate;\n\n    \n        candidates[candidate].voteCount += sender.weight;\n    }\n\n    function winningCandidate() \n        public\n        EndedState\n        view\n        // returns (string memory winnerName_, address payable memory _candidateAddress)\n        returns ( address payable _candidateAddress)\n\n    {\n        uint winningVoteCount = 0;\n        for (uint p = 0; p < candidates.length; p++) {\n            if (candidates[p].voteCount > winningVoteCount) {\n                winningVoteCount = candidates[p].voteCount;\n                // winnerName_ = candidates[p].name;\n                _candidateAddress = candidates[p].candidatesAddress;\n\n            }\n        }\n    }\n}",
  "sourcePath": "C:\\Users\\solutechuser\\Documents\\Web3\\You matter\\contracts\\YouMatter.sol",
  "compiler": {
    "name": "solc",
    "version": "0.5.16+commit.9c3226ce.Emscripten.clang"
  },
  "schemaVersion": "3.4.7",
  "updatedAt": "2022-04-10T01:24:31.579Z",
  "devdoc": {
    "methods": {}
  },
  "userdoc": {
    "methods": {}
  }
}