{
  "contractName": "YouMatterDao",
  "abi": [
    {
      "inputs": [
        {
          "internalType": "string[]",
          "name": "candidateNames",
          "type": "string[]"
        },
        {
          "internalType": "address payable[]",
          "name": "_candidatesAddress",
          "type": "address[]"
        }
      ],
      "stateMutability": "nonpayable",
      "type": "constructor"
    },
    {
      "inputs": [
        {
          "internalType": "uint256",
          "name": "",
          "type": "uint256"
        }
      ],
      "name": "candidates",
      "outputs": [
        {
          "internalType": "string",
          "name": "name",
          "type": "string"
        },
        {
          "internalType": "address payable",
          "name": "candidatesAddress",
          "type": "address"
        },
        {
          "internalType": "uint256",
          "name": "voteCount",
          "type": "uint256"
        }
      ],
      "stateMutability": "view",
      "type": "function"
    },
    {
      "inputs": [],
      "name": "chairperson",
      "outputs": [
        {
          "internalType": "address",
          "name": "",
          "type": "address"
        }
      ],
      "stateMutability": "view",
      "type": "function"
    },
    {
      "inputs": [],
      "name": "state",
      "outputs": [
        {
          "internalType": "enum YouMatterDao.State",
          "name": "",
          "type": "uint8"
        }
      ],
      "stateMutability": "view",
      "type": "function"
    },
    {
      "inputs": [
        {
          "internalType": "address",
          "name": "",
          "type": "address"
        }
      ],
      "name": "voters",
      "outputs": [
        {
          "internalType": "uint256",
          "name": "weight",
          "type": "uint256"
        },
        {
          "internalType": "bool",
          "name": "voted",
          "type": "bool"
        },
        {
          "internalType": "uint256",
          "name": "vote",
          "type": "uint256"
        }
      ],
      "stateMutability": "view",
      "type": "function"
    },
    {
      "inputs": [],
      "name": "donate",
      "outputs": [],
      "stateMutability": "payable",
      "type": "function"
    },
    {
      "inputs": [
        {
          "internalType": "uint256",
          "name": "_withdrawalAmount",
          "type": "uint256"
        }
      ],
      "name": "withdraw",
      "outputs": [],
      "stateMutability": "nonpayable",
      "type": "function"
    },
    {
      "inputs": [
        {
          "internalType": "string[]",
          "name": "candidateNames",
          "type": "string[]"
        },
        {
          "internalType": "address payable[]",
          "name": "_candidatesAddress",
          "type": "address[]"
        }
      ],
      "name": "addCandidates",
      "outputs": [],
      "stateMutability": "nonpayable",
      "type": "function"
    },
    {
      "inputs": [],
      "name": "startVote",
      "outputs": [],
      "stateMutability": "nonpayable",
      "type": "function"
    },
    {
      "inputs": [],
      "name": "endVote",
      "outputs": [],
      "stateMutability": "nonpayable",
      "type": "function"
    },
    {
      "inputs": [
        {
          "internalType": "address",
          "name": "voter",
          "type": "address"
        }
      ],
      "name": "giveRightToVote",
      "outputs": [],
      "stateMutability": "nonpayable",
      "type": "function"
    },
    {
      "inputs": [
        {
          "internalType": "uint256",
          "name": "candidate",
          "type": "uint256"
        }
      ],
      "name": "vote",
      "outputs": [],
      "stateMutability": "nonpayable",
      "type": "function"
    },
    {
      "inputs": [],
      "name": "winningCandidate",
      "outputs": [
        {
          "internalType": "address payable",
          "name": "_candidateAddress",
          "type": "address"
        }
      ],
      "stateMutability": "view",
      "type": "function"
    }
  ],
  "bytecode": "0x60806040523480156200001157600080fd5b506040516200132738038062001327833981016040819052620000349162000299565b600080546001600160a01b03191633178082556001600160a01b031681526001602081905260408220556003805460ff191690555b8251811015620001615760026040518060600160405280858481518110620000a157634e487b7160e01b600052603260045260246000fd5b60200260200101518152602001848481518110620000cf57634e487b7160e01b600052603260045260246000fd5b6020908102919091018101516001600160a01b031682526000918101829052835460018101855593825290819020825180519394600302909101926200011992849201906200016a565b5060208201516001820180546001600160a01b0319166001600160a01b039092169190911790556040909101516002909101558062000158816200045c565b91505062000069565b5050506200049a565b82805462000178906200041f565b90600052602060002090601f0160209004810192826200019c5760008555620001e7565b82601f10620001b757805160ff1916838001178555620001e7565b82800160010185558215620001e7579182015b82811115620001e7578251825591602001919060010190620001ca565b50620001f5929150620001f9565b5090565b5b80821115620001f55760008155600101620001fa565b600082601f83011262000221578081fd5b815160206200023a6200023483620003f9565b620003cd565b828152818101908583018385028701840188101562000257578586fd5b855b858110156200028c5781516001600160a01b038116811462000279578788fd5b8452928401929084019060010162000259565b5090979650505050505050565b6000806040808486031215620002ad578283fd5b83516001600160401b0380821115620002c4578485fd5b818601915086601f830112620002d8578485fd5b81516020620002eb6200023483620003f9565b82815281810190858301895b858110156200039857815188018d603f82011262000313578b8cfd5b85810151888111156200032a576200032a62000484565b6200033e601f8201601f19168801620003cd565b8181528f8c83850101111562000352578d8efd5b8d5b8281101562000371578381018d01518282018a0152880162000354565b8281111562000382578e8984840101525b50865250509284019290840190600101620002f7565b505091890151919750909450505080831115620003b3578384fd5b5050620003c38582860162000210565b9150509250929050565b6040518181016001600160401b0381118282101715620003f157620003f162000484565b604052919050565b60006001600160401b0382111562000415576200041562000484565b5060209081020190565b6002810460018216806200043457607f821691505b602082108114156200045657634e487b7160e01b600052602260045260246000fd5b50919050565b60006000198214156200047d57634e487b7160e01b81526011600452602481fd5b5060010190565b634e487b7160e01b600052604160045260246000fd5b610e7d80620004aa6000396000f3fe6080604052600436106100a75760003560e01c80639e7b8d61116100645780639e7b8d611461017d578063a3ec138d1461019d578063b9223946146101cc578063c19d93fb146101e1578063d28178d714610203578063ed88c68e14610218576100a7565b80630121b93f146100ac5780632e1a7d4d146100ce5780632e4176cf146100ee5780633477ee2e146101195780634c0a6af01461014857806393e05a8f1461015d575b600080fd5b3480156100b857600080fd5b506100cc6100c7366004610ab3565b610220565b005b3480156100da57600080fd5b506100cc6100e9366004610ab3565b610325565b3480156100fa57600080fd5b50610103610369565b6040516101109190610acb565b60405180910390f35b34801561012557600080fd5b50610139610134366004610ab3565b610378565b60405161011093929190610b07565b34801561015457600080fd5b506100cc610444565b34801561016957600080fd5b506100cc6101783660046109b4565b6104c8565b34801561018957600080fd5b506100cc610198366004610991565b61060e565b3480156101a957600080fd5b506101bd6101b8366004610991565b6106b5565b60405161011093929190610d31565b3480156101d857600080fd5b506100cc6106db565b3480156101ed57600080fd5b506101f661075d565b6040516101109190610adf565b34801561020f57600080fd5b50610103610766565b6100cc610881565b600160035460ff16600281111561024757634e487b7160e01b600052602160045260246000fd5b1461026d5760405162461bcd60e51b815260040161026490610cc3565b60405180910390fd5b336000908152600160205260409020805461029a5760405162461bcd60e51b815260040161026490610b72565b600181015460ff16156102bf5760405162461bcd60e51b815260040161026490610ba0565b6001818101805460ff19169091179055600280820183905581548154909190849081106102fc57634e487b7160e01b600052603260045260246000fd5b9060005260206000209060030201600201600082825461031c9190610d95565b90915550505050565b61032d610766565b6001600160a01b03166108fc829081150290604051600060405180830381858888f19350505050158015610365573d6000803e3d6000fd5b5050565b6000546001600160a01b031681565b6002818154811061038857600080fd5b90600052602060002090600302016000915090508060000180546103ab90610dad565b80601f01602080910402602001604051908101604052809291908181526020018280546103d790610dad565b80156104245780601f106103f957610100808354040283529160200191610424565b820191906000526020600020905b81548152906001019060200180831161040757829003601f168201915b50505050600183015460029093015491926001600160a01b031691905083565b6000546001600160a01b0316331461046e5760405162461bcd60e51b815260040161026490610bc8565b600060035460ff16600281111561049557634e487b7160e01b600052602160045260246000fd5b146104b25760405162461bcd60e51b815260040161026490610c94565b600380546001919060ff191682805b0217905550565b600260035460ff1660028111156104ef57634e487b7160e01b600052602160045260246000fd5b1461050c5760405162461bcd60e51b815260040161026490610c5d565b6003805460ff1916905560005b8251811015610609576002604051806060016040528085848151811061054f57634e487b7160e01b600052603260045260246000fd5b6020026020010151815260200184848151811061057c57634e487b7160e01b600052603260045260246000fd5b6020908102919091018101516001600160a01b031682526000918101829052835460018101855593825290819020825180519394600302909101926105c49284920190610883565b5060208201516001820180546001600160a01b0319166001600160a01b039092169190911790556040909101516002909101558061060181610de8565b915050610519565b505050565b6000546001600160a01b031633146106385760405162461bcd60e51b815260040161026490610c15565b6001600160a01b0381166000908152600160208190526040909120015460ff16156106755760405162461bcd60e51b815260040161026490610cfa565b6001600160a01b0381166000908152600160205260409020541561069857600080fd5b6001600160a01b0316600090815260016020819052604090912055565b600160208190526000918252604090912080549181015460029091015460ff9091169083565b6000546001600160a01b031633146107055760405162461bcd60e51b815260040161026490610bc8565b600160035460ff16600281111561072c57634e487b7160e01b600052602160045260246000fd5b146107495760405162461bcd60e51b815260040161026490610cc3565b600380546002919060ff19166001836104c1565b60035460ff1681565b6000600260035460ff16600281111561078f57634e487b7160e01b600052602160045260246000fd5b146107ac5760405162461bcd60e51b815260040161026490610c5d565b6000805b60025481101561087c5781600282815481106107dc57634e487b7160e01b600052603260045260246000fd5b906000526020600020906003020160020154111561086a576002818154811061081557634e487b7160e01b600052603260045260246000fd5b90600052602060002090600302016002015491506002818154811061084a57634e487b7160e01b600052603260045260246000fd5b60009182526020909120600160039092020101546001600160a01b031692505b8061087481610de8565b9150506107b0565b505090565b565b82805461088f90610dad565b90600052602060002090601f0160209004810192826108b157600085556108f7565b82601f106108ca57805160ff19168380011785556108f7565b828001600101855582156108f7579182015b828111156108f75782518255916020019190600101906108dc565b50610903929150610907565b5090565b5b808211156109035760008155600101610908565b600082601f83011261092c578081fd5b8135602061094161093c83610d71565b610d47565b828152818101908583018385028701840188101561095d578586fd5b855b8581101561098457813561097281610e2f565b8452928401929084019060010161095f565b5090979650505050505050565b6000602082840312156109a2578081fd5b81356109ad81610e2f565b9392505050565b60008060408084860312156109c7578182fd5b833567ffffffffffffffff808211156109de578384fd5b818601915086601f8301126109f1578384fd5b81356020610a0161093c83610d71565b82815281810190858301885b85811015610a8357813588018d603f820112610a27578a8bfd5b8581013588811115610a3b57610a3b610e19565b610a4d601f8201601f19168801610d47565b8181528f8c838501011115610a60578c8dfd5b818c84018983013790810187018c90528552509284019290840190600101610a0d565b50909850505087013593505080831115610a9b578384fd5b5050610aa98582860161091c565b9150509250929050565b600060208284031215610ac4578081fd5b5035919050565b6001600160a01b0391909116815260200190565b6020810160038310610b0157634e487b7160e01b600052602160045260246000fd5b91905290565b6000606082528451806060840152815b81811015610b345760208188018101516080868401015201610b17565b81811115610b455782608083860101525b506001600160a01b039490941660208301525060408101919091526080601f909201601f19160101919050565b602080825260149082015273486173206e6f20726967687420746f20766f746560601b604082015260600190565b6020808252600e908201526d20b63932b0b23c903b37ba32b21760911b604082015260600190565b6020808252602d908201527f4f6e6c79206368616972706572736f6e2063616e20737461727420616e64206560408201526c6e642074686520766f74696e6760981b606082015260800190565b60208082526028908201527f4f6e6c79206368616972706572736f6e2063616e2067697665207269676874206040820152673a37903b37ba329760c11b606082015260800190565b6020808252601a908201527f6974206d75737420626520696e20456e64656420506572696f64000000000000604082015260600190565b6020808252601590820152741a5d081b5d5cdd081899481a5b8814dd185c9d1959605a1b604082015260600190565b6020808252601b908201527f6974206d75737420626520696e20566f74696e6720506572696f640000000000604082015260600190565b60208082526018908201527f54686520766f74657220616c726561647920766f7465642e0000000000000000604082015260600190565b9283529015156020830152604082015260600190565b60405181810167ffffffffffffffff81118282101715610d6957610d69610e19565b604052919050565b600067ffffffffffffffff821115610d8b57610d8b610e19565b5060209081020190565b60008219821115610da857610da8610e03565b500190565b600281046001821680610dc157607f821691505b60208210811415610de257634e487b7160e01b600052602260045260246000fd5b50919050565b6000600019821415610dfc57610dfc610e03565b5060010190565b634e487b7160e01b600052601160045260246000fd5b634e487b7160e01b600052604160045260246000fd5b6001600160a01b0381168114610e4457600080fd5b5056fea2646970667358221220a01b8fd35d12cf73842d36acd4bc62a9a85a3ce12c2e29ea0f248239623e2ad764736f6c63430008000033",
  "immutableReferences": {},
  "source": "// SPDX-License-Identifier: GPL-3.0\n\npragma solidity ^0.8.0;\npragma abicoder v2;\n\n\ncontract YouMatterDao {\n   \n    struct DAOVoter {\n        uint weight; \n        bool voted;  \n        uint vote;   \n    }\n \n    struct Candidate {\n        string name;\n        address payable candidatesAddress;\n        uint voteCount; \n    }\n\n    address public chairperson;\n\n    mapping(address => DAOVoter) public voters;\n\n    Candidate[] public candidates;\n    enum State { Created, Voting, Ended } \n    \n    State public state;\n\n    constructor(string[] memory candidateNames, address payable[] memory _candidatesAddress) {\n        chairperson = msg.sender;\n        voters[chairperson].weight = 1;\n        state = State.Created;\n        \n        for (uint i = 0; i < candidateNames.length; i++) {\n            candidates.push(Candidate({\n                name: candidateNames[i],\n                candidatesAddress: _candidatesAddress[i],\n                voteCount: 0\n            }));\n        }\n    }\n     \n\n    function donate() public payable {}\n    \n    \n    function withdraw(uint _withdrawalAmount)  public {\n         winningCandidate().transfer(_withdrawalAmount);\n    }\n\n\n    \n    modifier onlySmartContractOwner() {\n        require(\n            msg.sender == chairperson,\n            \"Only chairperson can start and end the voting\"\n        );\n        _;\n    }\n    \n    modifier CreatedState() {\n        require(state == State.Created, \"it must be in Started\");\n        _;\n    }\n    \n    modifier VotingState() {\n        require(state == State.Voting, \"it must be in Voting Period\");\n        _;\n    }\n    \n    modifier EndedState() {\n        require(state == State.Ended, \"it must be in Ended Period\");\n        _;\n    }\n    \n    function addCandidates(string[] memory candidateNames,address payable[] memory _candidatesAddress) \n        public \n        EndedState\n    {\n        state = State.Created;\n        for (uint i = 0; i < candidateNames.length; i++) {\n            candidates.push(Candidate({\n                name: candidateNames[i],\n                candidatesAddress: _candidatesAddress[i],\n                voteCount: 0\n            }));\n        }\n    }\n    \n    \n    function startVote() \n        public\n        onlySmartContractOwner\n        CreatedState\n    {\n        state = State.Voting;\n    }\n\n    function endVote() \n        public \n        onlySmartContractOwner\n        VotingState\n    {\n        state = State.Ended;\n    }\n\n    function giveRightToVote(address voter) public {\n        require(\n            msg.sender == chairperson,\n            \"Only chairperson can give right to vote.\"\n        );\n        require(\n            !voters[voter].voted,\n            \"The voter already voted.\"\n        );\n        require(voters[voter].weight == 0);\n        voters[voter].weight = 1;\n    }\n\n    function vote(uint candidate) \n        public\n        VotingState\n    {\n        DAOVoter\n storage sender = voters[msg.sender];\n        require(sender.weight != 0, \"Has no right to vote\");\n        require(!sender.voted, \"Already voted.\");\n        sender.voted = true;\n        sender.vote = candidate;\n\n    \n        candidates[candidate].voteCount += sender.weight;\n    }\n\n    function winningCandidate() \n        public\n        EndedState\n        view\n        // returns (string memory winnerName_, address payable memory _candidateAddress)\n        returns ( address payable _candidateAddress)\n\n    {\n        uint winningVoteCount = 0;\n        for (uint p = 0; p < candidates.length; p++) {\n            if (candidates[p].voteCount > winningVoteCount) {\n                winningVoteCount = candidates[p].voteCount;\n                // winnerName_ = candidates[p].name;\n                _candidateAddress = candidates[p].candidatesAddress;\n\n            }\n        }\n    }\n}",
  "sourcePath": "C:\\Users\\solutechuser\\Documents\\Web3\\You matter\\contracts\\YouMatter.sol",
  "compiler": {
    "name": "solc",
    "version": "0.8.0+commit.c7dfd78e.Emscripten.clang"
  },
  "schemaVersion": "3.4.5",
  "updatedAt": "2022-04-10T00:15:07.394Z",
  "devdoc": {
    "kind": "dev",
    "methods": {},
    "version": 1
  },
  "userdoc": {
    "kind": "user",
    "methods": {},
    "version": 1
  }
}